:020000040000FA
:1020000057EF3EF0FFFFFFFFFFFFFFFFFFFFFFFF68
:10201000FFFFFFFFFFFFFFFFFFFFFFFFFFFFFFFFD0
:10202000FFFFFFFFFFFFFFFFFFFFFFFFFFFFFFFFC0
:10203000FFFFFFFFFFFFFFFFFFFFFFFFFFFFFFFFB0
:107C4000FFFFFFFFFFFFFFFFFFFFFFFFFFFFFFFF44
:107C50000100FE0EBB6E000EBC6E9E92060EBA6E4A
:107C6000120080EC3EF047EC3EF03AEC3EF029EC9E
:107C70003EF012001C0EBD6E000EB66E800EB76E8A
:107C8000010EB96E000EBF6E7F0EBE6E1200700E3A
:107C9000D36E000ED26E800E9B6E000EB56ED2AE0D
:107CA00054EF3EF056EF3EF04FEF3EF01200500E14
:107CB000F66E7C0EF76E000EF86E0900F5CF09F037
:107CC0000900F5CF0AF0086A076A00019FEF3EF04D
:107CD00001C003F002C004F0D89004320332D890FF
:107CE000043203320350BE6E01C003F0030E0316CC
:107CF000033AF00E0316BD50CF0B0310BD6E1200F9
:107D0000000E8D6E000E8C6E000E896E000E8A6E57
:107D1000000E8B6E070E966E92689368C00E946E7E
:107D200095680F015E69C40E5D6F3F0E5C6F070EB4
:107D30005F6F2F0E5B6F000E856EF18E120031ECBF
:107D40003EF08B808B92000E0A6E010E096EBFEF23
:107D50003EF0050E0726000E082207C001F008C0FD
:107D600002F068EC3EF0030E066E700E056E5C0EBF
:107D7000E82EFED7052EFCD7062EFAD700D0FC0E33
:107D8000075C030E0858D8B0C8EF3EF0CAEF3EF0CB
:107D9000D3EF3EF009500A10D8A4D1EF3EF0D3EF54
:107DA0003EF0A9EF3EF0000E0A6E000E096EEFEFF6
:107DB0003EF0050E075E000E085A07C001F008C02D
:107DC00002F068EC3EF0030E066E700E056E5C0E5F
:107DD000E82EFED7052EFCD7062EFAD700D0085085
:107DE00009E1060E075CD8A0F8EF3EF0FAEF3EF08E
:107DF00003EF3FF009500A10D8B401EF3FF003EF52
:107E00003FF0D9EF3EF0000E0A6E010E096E8B9026
:107E10008B923D0E066EE10E056E400EE82EFED7EB
:107E2000052EFCD7062EFAD78B908B82000E0A6E99
:107E3000010E096E32EF3FF0050E0726000E0822F4
:107E400007C001F008C002F068EC3EF0030E066EB9
:107E5000700E056E5C0EE82EFED7052EFCD7062EA2
:107E6000FAD700D0FC0E075C030E0858D8B03BEFE1
:107E70003FF03DEF3FF046EF3FF009500A10D8A425
:107E800044EF3FF046EF3FF01CEF3FF0000E0A6E6C
:107E9000000E096E62EF3FF0050E075E000E085AF5
:107EA00007C001F008C002F068EC3EF0030E066E59
:107EB000700E056E5C0EE82EFED7052EFCD7062E42
:107EC000FAD700D0085009E1060E075CD8A06BEF86
:107ED0003FF06DEF3FF076EF3FF009500A10D8B455
:107EE00074EF3FF076EF3FF04CEF3FF0000E0A6E7C
:107EF000010E096E8B908B92A1EF3EF000EF10F017
:020000040030CA
:0400000003285F3C36
:0200060081FF78
:020000040020DA
:080000000E0A0D0D00000000C6
:00000001FF
