:020000040000FA
:1020000069EF3EF0FFFFFFFFFFFFFFFFFFFFFFFF56
:10201000FFFFFFFFFFFFFFFFFFFFFFFFFFFFFFFFD0
:107CA000FFFFFFFFFFFFFFFFFFFFFFFF01000F0EC2
:107CB000C112000E8B6E9494949294901200FE0E5A
:107CC000CB6E000ECC6E060ECA6E0C0EBD6ECA8454
:107CD0001200AC0EF66E7C0EF76E000EF86E090008
:107CE000F5CF09F00900F5CF0AF0086A076A00012C
:107CF00092EF3EF001C003F002C004F0D8900432CD
:107D00000332D890043203320350BE6E01C003F038
:107D1000030E0316033AF00E0316BD50CF0B0310EB
:107D2000BD6E120057EC3EF05FEC3EF08B808B9204
:107D3000000E0A6E010E096EB4EF3EF0050E072626
:107D4000000E082207C001F008C002F07AEC3EF0F5
:107D5000030E066E700E056E5C0EE82EFED7052E25
:107D6000FCD7062EFAD700D0FC0E075C030E08588D
:107D7000D8B0BDEF3EF0BFEF3EF0C8EF3EF0095087
:107D80000A10D8A4C6EF3EF0C8EF3EF09EEF3EF0DA
:107D9000000E0A6E000E096EE4EF3EF0050E075E5F
:107DA000000E085A07C001F008C002F07AEC3EF05D
:107DB000030E066E700E056E5C0EE82EFED7052EC5
:107DC000FCD7062EFAD700D0085009E1060E075C52
:107DD000D8A0EDEF3EF0EFEF3EF0F8EF3EF00950A7
:107DE0000A10D8B4F6EF3EF0F8EF3EF0CEEF3EF0DA
:107DF000000E0A6E010E096E8B908B923D0E066E80
:107E0000E10E056E400EE82EFED7052EFCD7062E9D
:107E1000FAD78B908B82000E0A6E010E096E27EF47
:107E20003FF0050E0726000E082207C001F008C02B
:107E300002F07AEC3EF0030E066E700E056E5C0EDC
:107E4000E82EFED7052EFCD7062EFAD700D0FC0E62
:107E5000075C030E0858D8B030EF3FF032EF3FF028
:107E60003BEF3FF009500A10D8A439EF3FF03BEF49
:107E70003FF011EF3FF0000E0A6E000E096E57EF53
:107E80003FF0050E075E000E085A07C001F008C05B
:107E900002F07AEC3EF0030E066E700E056E5C0E7C
:107EA000E82EFED7052EFCD7062EFAD700D00850B4
:107EB00009E1060E075CD8A060EF3FF062EF3FF0EB
:107EC0006BEF3FF009500A10D8B469EF3FF06BEF49
:107ED0003FF041EF3FF0000E0A6E010E096E8B90ED
:107EE0008B923D0E066EE10E056E400EE82EFED71B
:107EF000052EFCD7062EFAD796EF3EF000EF10F0D5
:020000040030CA
:08000000000E181EFF8181FFB4
:020000040020DA
:080000000207040E00000000DD
:00000001FF
